:100000000C9444010C9475010C9475010C947501C9
:100010000C9475010C9475010C9475010C94750188
:100020000C9475010C9475010C9475010C94750178
:100030000C9475010C9475010C9475010C94750168
:100040000C9475010C9475010C9475010C94750158
:100050000C9475010C9475010C9475010C94870235
:100060000C9475010C9446060C9436070C9475019B
:100070000C9475010C9475010C9475010C94750128
:100080000C9475010C9475010C9475010C94750118
:100090000C947A060C9475070C9475010C947501F8
:1000A0000C9475010C9475010C9475010C947501F8
:1000B0000C9475010C9475010C9475010C947501E8
:1000C0000C9475010C9475010C9475010C94AE069A
:1000D0000C94B4070C9475010C94E2060C94F3078D
:1000E0000C947501950398038B038F03CF039C0336
:1000F000A003A603AA03AE03B403B803BC03CF0353
:10010000C203C603CA030C94BE050C94BC030C9432
:100110008F030C94A2050C94E9050C94A6030C948F
:1001200015070C94AA030C94C2030C9492050C942A
:1001300095030C94DE050C94CA030C948B030C9469
:10014000B4030C94AE030C9498030C949C030C948D
:1001500064040C94B6080C94B8030C94C6030C9475
:10016000CF030C94A0030000090A02080B0C0D0732
:100170000603040100000000000000000000000071
:10018000000000000000000000000000000000006F
:10019000000011100F00000000000000000000002F
:1001A000000000000000000000000000010210201C
:1001B000200808102040102040800201020108049D
:1001C0000201010204081020408080402010080431
:1001D000020180040201804020100804020108048A
:1001E00002010102040810204080010204081020CE
:1001F00040800505050507050808080802020202F7
:100200000A0A0808040404040101010101010101B2
:100210000303030303030303040707070C0C0C0C7D
:100220000C0C0C0C02020202060606060606060666
:100230000B0B0B0B0B0B0B0B0000200023002600FD
:1002400029002C002F0032000001000003010601EC
:10025000090100002200250028002B002E0031009B
:10026000340002010000050108010B01000021001B
:10027000240027002A002D00300033000101000077
:10028000040107010A01B60811241FBECFEFD1E215
:10029000DEBFCDBF00E00CBF12E0A0E0B2E0E8E6B8
:1002A000F3E100E00BBF02C007900D92AE34B1073E
:1002B000D9F725E0AEE4B2E001C01D92A130B2074B
:1002C000E1F711E0C4E4D1E000E006C021970109A4
:1002D000802FFE010E94AA09C334D10780E00807DD
:1002E000A9F70E9485050C94B2090C94000061E006
:1002F00084E00E94D00361E085E00E94D00361E0C9
:1003000086E00E94D00361E087E00E94D00361E0B4
:1003100089E00E94D00361E08AE00E94D00361E09E
:100320008BE00E94D00360E082E00E94D00360E096
:1003300083E00E94D00360E088E00E94D00360E088
:1003400086E30E94D00361E087E30E94D00340E887
:1003500055E260E070E08FEB92E00C94320861E0CF
:1003600086E00E940C0461E085E00E940C0461E0DC
:1003700084E00C940C0460E086E00E940C0460E0D1
:1003800085E00E940C0460E084E00C940C0488E09A
:100390000E943B0490930102809300020197E1F4D4
:1003A00010924F0262E072E08FEB92E00E94BC0478
:1003B00061E089E00E940C0460E08BE00E940C0484
:1003C00060E08AE00E940C040E94BB0164EF71E0CF
:1003D00080E090E00E94F60282E00E943B0490934D
:1003E000010280930002892B39F580914E02811120
:1003F00023C066E172E08FEB92E00E94BC0461E0F2
:1004000087E00E940C0460E089E00E940C0461E037
:100410008BE00E940C0460E08AE00E940C0481E002
:1004200080934F026AEF70E080E090E00E94F60255
:1004300060E087E00E940C0483E00E943B049093FC
:10044000010280930002892B81F480914F02813058
:1004500061F480914E02811108C069E272E08FEB75
:1004600092E00E94BC040E94AF0186E30E943B041C
:100470009093010280930002892B91F44AE050E0AE
:1004800060E070E08FEB92E00E94730560E087E32C
:100490000E940C0460E08AE00E940C0410924E025C
:1004A00086E30E943B04909301028093000201972F
:1004B00069F54AE050E061E070E08FEB92E00E9465
:1004C000730581E080934E0261E087E30E940C0493
:1004D00060E089E00E940C0460E08BE00E940C0464
:1004E0000E94BB0161E08AE00E940C0468EE73E0A8
:1004F00080E090E00E94F60260E08AE00E940C0436
:1005000068EE73E080E090E00C94F60208951F928C
:100510000F920FB60F9211242F933F938F939F93B7
:10052000AF93BF938091510290915202A0915302D8
:10053000B09154023091500223E0230F2D3720F464
:100540000196A11DB11D05C026E8230F0296A11D2D
:10055000B11D209350028093510290935202A093B8
:100560005302B09354028091550290915602A0918B
:100570005702B09158020196A11DB11D80935502FA
:1005800090935602A0935702B0935802BF91AF9137
:100590009F918F913F912F910F900FBE0F901F90C1
:1005A00018953FB7F8948091550290915602A0910A
:1005B0005702B091580226B5A89B05C02F3F19F0ED
:1005C0000196A11DB11D3FBFBA2FA92F982F8827D3
:1005D000820F911DA11DB11DBC01CD0142E0660F2E
:1005E000771F881F991F4A95D1F70895CF92DF9200
:1005F000EF92FF92CF93DF936B017C010E94D102B7
:10060000EB01C114D104E104F10479F00E94D1029C
:100610006C1B7D0B683E7340A0F381E0C81AD108C3
:10062000E108F108C851DC4FECCFDF91CF91FF908A
:10063000EF90DF90CF900895789484B5826084BD68
:1006400084B5816084BD85B5826085BD85B58160D6
:1006500085BDEEE6F0E0808181608083E1E8F0E036
:100660001082808182608083808181608083E0E865
:10067000F0E0808181608083E1EBF0E08081846044
:100680008083E0EBF0E0808181608083E1E9F0E04D
:10069000808182608083808181608083E0E9F0E0F6
:1006A000808181608083E1EAF0E0808182608083E4
:1006B000808181608083E0EAF0E0808181608083D6
:1006C000E1E2F1E0808182608083808181608083CB
:1006D000E0E2F1E0808181608083EAE7F0E0808100
:1006E0008460808380818260808380818160808358
:1006F0008081806880831092C100089590E0FC01A1
:100700003197E131F10508F04AC08827EE58FF4FD4
:100710008F4F0C94AA09809180008F7703C080913D
:1007200080008F7D80938000089584B58F7702C00C
:1007300084B58F7D84BD08958091B0008F7703C00C
:100740008091B0008F7D8093B000089580919000DB
:100750008F7707C0809190008F7D03C080919000BB
:10076000877F8093900008958091A0008F7707C0C5
:100770008091A0008F7D03C08091A000877F80932F
:10078000A0000895809120018F7707C080912001FB
:100790008F7D03C080912001877F80932001089581
:1007A000CF93DF9390E0FC01E455FE4F2491FC01D0
:1007B000EE50FE4F8491882361F190E0880F991FDD
:1007C000FC01E459FD4FC591D491FC01EE5AFD4F57
:1007D000A591B491611109C09FB7F89488812095C3
:1007E00082238883EC912E230BC0623061F49FB783
:1007F000F8948881322F309583238883EC912E2BB7
:100800002C939FBF06C08FB7F894E8812E2B2883C6
:100810008FBFDF91CF9108951F93CF93DF93282F40
:1008200030E0F901EA59FE4F8491F901E455FE4F99
:10083000D491F901EE50FE4FC491CC23C1F0162F94
:1008400081110E947E03EC2FF0E0EE0FFF1FEE5AA5
:10085000FD4FA591B4919FB7F894111104C08C91EC
:10086000D095D82302C0EC91DE2BDC939FBFDF91A3
:10087000CF911F910895CF93DF93282F30E0F90196
:10088000EA59FE4F8491F901E455FE4FD491F901E4
:10089000EE50FE4FC491CC2391F081110E947E0353
:1008A000EC2FF0E0EE0FFF1FE85CFD4FA591B49137
:1008B000EC91ED2381E090E021F480E002C080E043
:1008C00090E0DF91CF910895CF92DF92EF92FF9267
:1008D0000F931F93CF93DF936C01EB017B01E40E29
:1008E000F51E00E010E0CE15DF0561F06991D6013C
:1008F000ED91FC910190F081E02DC6011995080F52
:10090000191FF1CFC801DF91CF911F910F91FF9077
:10091000EF90DF90CF9008956115710579F0FB019C
:1009200001900020E9F73197AF01461B570BDC011E
:10093000ED91FC910280F381E02D199480E090E02C
:100940000895DC01ED91FC910190F081E02D199466
:100950000F931F93CF93DF93EC016DE00E94A104EE
:100960008C016AE0CE010E94A104800F911FDF91EB
:10097000CF911F910F9108950F931F93CF93DF9302
:10098000EC010E948C048C01CE010E94A804800F0F
:10099000911FDF91CF911F910F9108958F929F9298
:1009A000AF92BF92CF92DF92EF92FF920F931F937D
:1009B000CF93DF93CDB7DEB7A1970FB6F894DEBF24
:1009C0000FBECDBF6C01142FE52FCB01022F19A252
:1009D000223008F40AE07E0121E2E20EF11C802EB2
:1009E000912CA12CB12C612F7E2FA50194010E9486
:1009F0008809029F1019112481E0E81AF1081A30C1
:100A000014F4105D01C0195CF7011083122FE32F5D
:100A1000CA01232B242B252B31F7B701C6010E94D5
:100A20008C04A1960FB6F894DEBF0FBECDBFDF9148
:100A3000CF911F910F91FF90EF90DF90CF90BF90DB
:100A4000AF909F908F900895CF92DF92EF92FF9298
:100A50000F931F93CF93DF932115310581F4DC01B0
:100A6000ED91FC910190F081E02D642FDF91CF9109
:100A70001F910F91FF90EF90DF90CF9019942A3043
:100A8000310501F577FF1DC06A017B01EC016DE2C4
:100A90000E94A1048C0144275527BA014C195D0915
:100AA0006E097F092AE0CE010E94CE04800F911FBB
:100AB000DF91CF911F910F91FF90EF90DF90CF903A
:100AC00008952AE0DF91CF911F910F91FF90EF9051
:100AD000DF90CF900C94CE049A01AB01770F660B98
:100AE000770B0C9424050F931F93CF93DF93EC01A6
:100AF0000E946C058C01CE010E94A804800F911FFA
:100B0000DF91CF911F910F9108950E941C030E94C5
:100B10007701C5E1D7E00E94C7012097E1F30E9469
:100B20001507F9CFFC0124853585F901E05CFF4FFD
:100B300080819181329620813181821B930B8F734A
:100B400099270895DC011C96ED91FC911D97DF011A
:100B5000A05CBF4F2D913C91119712968D919C9165
:100B600011972817390739F08D919C91E80FF91FDB
:100B7000808190E008958FEF9FEF0895FC01A48598
:100B8000B585FD01E05CFF4F208131813296808187
:100B900091812817390779F080819181A80FB91FB9
:100BA0008C91208131812F5F3F4F2F733327318309
:100BB000208390E008958FEF9FEF0895FC0181A1BD
:100BC000882329F0A489B5898C9186FFFBCF11A2D7
:100BD00008950F931F93CF93DF93FC01A685B785EC
:100BE0008D01005C1F4FE8018881998101968F7308
:100BF0009927AD014E5B5F4FEA01288139812817A3
:100C00003907D1F3E80128813981A20FB31F6C9312
:100C1000A685B785A05CBF4F11969C938E93A6893D
:100C2000B7892C9181E090E0078C02C0880F991F52
:100C30000A94E2F7822B8C9381E081A30488F589E2
:100C4000E02D80818064808381E090E0DF91CF910E
:100C50001F910F910895FB01E05CFF4F20813181CE
:100C6000DB01AE5BBF4F4D915C912F5F3F4F2F7308
:100C700033274217530741F040815181DB01A40F14
:100C8000B51F8C9331832083089508951F920F928E
:100C90000FB60F9211240BB60F922F933F934F93E1
:100CA0005F936F937F938F939F93AF93BF93EF93D4
:100CB000FF938091C00082FD07C08091C6006DEB5C
:100CC00074E00E942B0602C08091C600FF91EF9154
:100CD000BF91AF919F918F917F916F915F914F9154
:100CE0003F912F910F900BBE0F900FBE0F901F9052
:100CF000189508951F920F920FB60F9211240BB6FC
:100D00000F922F933F934F935F936F937F938F93A4
:100D10009F93AF93BF93EF93FF938091C80082FDA1
:100D200007C08091CE0065E374E00E942B0602C0EC
:100D30008091CE00FF91EF91BF91AF919F918F91E4
:100D40007F916F915F914F913F912F910F900BBECB
:100D50000F900FBE0F901F90189508951F920F923D
:100D60000FB60F9211240BB60F922F933F934F9310
:100D70005F936F937F938F939F93AF93BF93EF9303
:100D8000FF938091D00082FD07C08091D6006DEA6C
:100D900073E00E942B0602C08091D600FF91EF9174
:100DA000BF91AF919F918F917F916F915F914F9183
:100DB0003F912F910F900BBE0F900FBE0F901F9081
:100DC000189508951F920F920FB60F9211240BB62B
:100DD0000F922F933F934F935F936F937F938F93D4
:100DE0009F93AF93BF93EF93FF938091300182FD68
:100DF00007C08091360165E273E00E942B0602C0B5
:100E000080913601FF91EF91BF91AF919F918F91AA
:100E10007F916F915F914F913F912F910F900BBEFA
:100E20000F900FBE0F901F9018958FEB92E00E94CD
:100E30009205892B11F00E9445068DE992E00E94EF
:100E40009205892B11F00E9479068BE792E00E94AF
:100E50009205892B11F00E94AD0689E592E00E946F
:100E60009205892B11F00C94E10608951F920F92C0
:100E70000FB60F9211240BB60F922F933F938F93BF
:100E80009F93EF93FF932091B9043091BA0480911E
:100E9000BB049091BC042817390731F48091C1003C
:100EA0008F7D8093C10014C0E091BB04F091BC041D
:100EB000E758FB4F20818091BB049091BC040196C0
:100EC0008F7399279093BC048093BB042093C60032
:100ED000FF91EF919F918F913F912F910F900BBEBA
:100EE0000F900FBE0F901F9018951F920F920FB684
:100EF0000F9211240BB60F922F933F938F939F93D2
:100F0000EF93FF93209131043091320480913304A8
:100F1000909134042817390731F48091C9008F7DEE
:100F20008093C90014C0E0913304F0913404EF5071
:100F3000FC4F2081809133049091340401968F738B
:100F4000992790933404809333042093CE00FF912B
:100F5000EF919F918F913F912F910F900BBE0F902A
:100F60000FBE0F901F9018951F920F920FB60F9201
:100F700011240BB60F922F933F938F939F93EF9370
:100F8000FF932091A9033091AA038091AB03909124
:100F9000AC032817390731F48091D1008F7D8093FD
:100FA000D10014C0E091AB03F091AC03E759FC4FC2
:100FB00020818091AB039091AC0301968F739927A8
:100FC0009093AC038093AB032093D600FF91EF91F5
:100FD0009F918F913F912F910F900BBE0F900FBE5D
:100FE0000F901F9018951F920F920FB60F92112419
:100FF0000BB60F922F933F938F939F93EF93FF9393
:1010000020912103309122038091230390912403A6
:101010002817390731F4809131018F7D8093310198
:1010200014C0E0912303F0912403EF51FD4F208180
:10103000809123039091240301968F7399279093B5
:1010400024038093230320933601FF91EF919F9116
:101050008F913F912F910F900BBE0F900FBE0F906D
:101060001F901895CF92DF92EF92FF92CF93DF936C
:10107000EC016A017B014115514E6105710509F1D1
:10108000EC89FD8981E090E008A002C0880F991FDB
:101090000A94E2F7808360E079E08DE390E0A701B5
:1010A00096010E948809DA01C9010197A109B109D5
:1010B000B695A795979587959C01211580E13807EE
:1010C000A8F0EC89FD89108260E874E88EE190E078
:1010D000A70196010E948809DA01C9010197A109B7
:1010E000B109B695A795979587959C01E889F989E7
:1010F0003083EA89FB89208319A2EE89FF89408128
:1011000081E090E09C010C8C02C0220F331F0A94F6
:10111000E2F7242B2083EE89FF8940819C010D8C0E
:1011200002C0220F331F0A94E2F7242B2083EE899A
:10113000FF8940819C010E8C02C0220F331F0A944C
:10114000E2F7242B2083EE89FF8920810F8C02C0D7
:10115000880F991F0A94E2F7809582238083DF919C
:10116000CF91FF90EF90DF90CF900895CF92DF92D4
:10117000EF92FF92EFEBF2E01382128288EEC82E1C
:1011800083E0D82EE12CF12CC482D582E682F7824E
:1011900061E472E0718360838DEB94E095878487CE
:1011A00089E794E09787868785EC90E0918B808B28
:1011B00084EC90E0938B828B80EC90E0958B848B19
:1011C00081EC90E0978B868B82EC90E0918F808F02
:1011D00086EC90E0938F828F44E0448F33E0358F2C
:1011E00027E0268F95E0978F81E080A3EDE9F2E07C
:1011F00013821282C482D582E682F7827183608371
:10120000A5E3B4E0B587A487A1EFB3E0B787A687CD
:10121000ADECB0E0B18BA08BACECB0E0B38BA28BAB
:10122000A8ECB0E0B58BA48BA9ECB0E0B78BA68B93
:10123000AAECB0E0B18FA08FAEECB0E0B38FA28F7C
:10124000448F358F268F978F80A3EBE7F2E01382D0
:101250001282C482D582E682F78271836083ADEA0E
:10126000B3E0B587A487A9E6B3E0B787A687A5ED65
:10127000B0E0B18BA08BA4EDB0E0B38BA28BA0ED5E
:10128000B0E0B58BA48BA1EDB0E0B78BA68BA2ED3F
:10129000B0E0B18FA08FA6EDB0E0B38FA28F448FE6
:1012A000358F268F978F80A3E9E5F2E013821282B3
:1012B000C482D582E682F7827183608365E273E03F
:1012C0007587648761EE72E07787668765E371E012
:1012D000718B608B64E371E0738B628B60E371E010
:1012E000758B648B61E371E0778B668B62E371E0F1
:1012F000718F608F66E371E0738F628F448F358FDB
:10130000268F978F80A3FF90EF90DF90CF90089566
:10131000A1E21A2EAA1BBB1BFD010DC0AA1FBB1FF9
:10132000EE1FFF1FA217B307E407F50720F0A21B6B
:10133000B30BE40BF50B661F771F881F991F1A94D8
:1013400069F760957095809590959B01AC01BD0102
:10135000CF010895EE0FFF1F881F8BBF0790F691F6
:08136000E02D1994F894FFCF71
:101368000100546865207A6F6E652077696C6C207F
:10137800737461727400546865207A6F6E652077A3
:10138800696C6C2073746F7000546865207A6F6E96
:10139800652069732073746F7070656400000000C5
:0E13A80000E90564049205BE05A205DE0500FD
:00000001FF
